{
  "_format": "hh-sol-artifact-1",
  "contractName": "P2P_register",
  "sourceName": "contracts/P2P_register.sol",
  "abi": [
    {
      "inputs": [
        {
          "internalType": "uint256",
          "name": "_potenciaDemandada",
          "type": "uint256"
        }
      ],
      "stateMutability": "nonpayable",
      "type": "constructor"
    },
    {
      "inputs": [],
      "name": "adminAgente",
      "outputs": [
        {
          "internalType": "address",
          "name": "",
          "type": "address"
        }
      ],
      "stateMutability": "view",
      "type": "function"
    },
    {
      "inputs": [
        {
          "internalType": "address",
          "name": "",
          "type": "address"
        }
      ],
      "name": "agentes",
      "outputs": [
        {
          "internalType": "uint256",
          "name": "potenciaEntregada",
          "type": "uint256"
        },
        {
          "internalType": "address",
          "name": "identification",
          "type": "address"
        }
      ],
      "stateMutability": "view",
      "type": "function"
    },
    {
      "inputs": [],
      "name": "getNumberAgentes",
      "outputs": [
        {
          "internalType": "uint256",
          "name": "",
          "type": "uint256"
        }
      ],
      "stateMutability": "view",
      "type": "function"
    },
    {
      "inputs": [],
      "name": "getPotenciaDemandada",
      "outputs": [
        {
          "internalType": "uint256",
          "name": "",
          "type": "uint256"
        }
      ],
      "stateMutability": "view",
      "type": "function"
    },
    {
      "inputs": [],
      "name": "numberAgentes",
      "outputs": [
        {
          "internalType": "uint256",
          "name": "",
          "type": "uint256"
        }
      ],
      "stateMutability": "view",
      "type": "function"
    },
    {
      "inputs": [],
      "name": "potenciaDemandada",
      "outputs": [
        {
          "internalType": "uint256",
          "name": "",
          "type": "uint256"
        }
      ],
      "stateMutability": "view",
      "type": "function"
    },
    {
      "inputs": [],
      "name": "register",
      "outputs": [],
      "stateMutability": "nonpayable",
      "type": "function"
    },
    {
      "inputs": [],
      "name": "sumPotencias",
      "outputs": [
        {
          "internalType": "uint256",
          "name": "",
          "type": "uint256"
        }
      ],
      "stateMutability": "view",
      "type": "function"
    }
  ],
  "bytecode": "0x608060405234801561001057600080fd5b50604051610560380380610560833981810160405281019061003291906100bb565b33600360006101000a81548173ffffffffffffffffffffffffffffffffffffffff021916908373ffffffffffffffffffffffffffffffffffffffff16021790555080600181905550506100e8565b600080fd5b6000819050919050565b61009881610085565b81146100a357600080fd5b50565b6000815190506100b58161008f565b92915050565b6000602082840312156100d1576100d0610080565b5b60006100df848285016100a6565b91505092915050565b610469806100f76000396000f3fe608060405234801561001057600080fd5b50600436106100885760003560e01c806386e13cd21161005b57806386e13cd2146100f15780639cd5e455146101225780639ed5d7f514610140578063db509a0c1461015e57610088565b80631aa3a0081461008d57806326fa12b01461009757806335e0a872146100b557806377d67a3b146100d3575b600080fd5b61009561017c565b005b61009f610216565b6040516100ac91906102be565b60405180910390f35b6100bd61021c565b6040516100ca91906102be565b60405180910390f35b6100db610225565b6040516100e8919061031a565b60405180910390f35b61010b60048036038101906101069190610366565b61024b565b604051610119929190610393565b60405180910390f35b61012a61028f565b60405161013791906102be565b60405180910390f35b610148610295565b60405161015591906102be565b60405180910390f35b61016661029f565b60405161017391906102be565b60405180910390f35b33600460003373ffffffffffffffffffffffffffffffffffffffff1673ffffffffffffffffffffffffffffffffffffffff16815260200190815260200160002060010160006101000a81548173ffffffffffffffffffffffffffffffffffffffff021916908373ffffffffffffffffffffffffffffffffffffffff16021790555060008081548092919061020f906103eb565b9190505550565b60015481565b60008054905090565b600360009054906101000a900473ffffffffffffffffffffffffffffffffffffffff1681565b60046020528060005260406000206000915090508060000154908060010160009054906101000a900473ffffffffffffffffffffffffffffffffffffffff16905082565b60005481565b6000600154905090565b60025481565b6000819050919050565b6102b8816102a5565b82525050565b60006020820190506102d360008301846102af565b92915050565b600073ffffffffffffffffffffffffffffffffffffffff82169050919050565b6000610304826102d9565b9050919050565b610314816102f9565b82525050565b600060208201905061032f600083018461030b565b92915050565b600080fd5b610343816102f9565b811461034e57600080fd5b50565b6000813590506103608161033a565b92915050565b60006020828403121561037c5761037b610335565b5b600061038a84828501610351565b91505092915050565b60006040820190506103a860008301856102af565b6103b5602083018461030b565b9392505050565b7f4e487b7100000000000000000000000000000000000000000000000000000000600052601160045260246000fd5b60006103f6826102a5565b91507fffffffffffffffffffffffffffffffffffffffffffffffffffffffffffffffff8203610428576104276103bc565b5b60018201905091905056fea26469706673582212207f4e80b4346451621d5f5e9e578664f8d7fd7edd0861fb9ee133210b0fcb34bd64736f6c63430008180033",
  "linkReferences": {},
  "deployedLinkReferences": {}
}