{
  "_format": "hh-sol-artifact-1",
  "contractName": "P2P_register",
  "sourceName": "contracts/P2P_register.sol",
  "abi": [
    {
      "inputs": [
        {
          "internalType": "uint256",
          "name": "_potenciaDemandada",
          "type": "uint256"
        }
      ],
      "stateMutability": "nonpayable",
      "type": "constructor"
    },
    {
      "inputs": [],
      "name": "adminAgente",
      "outputs": [
        {
          "internalType": "address",
          "name": "",
          "type": "address"
        }
      ],
      "stateMutability": "view",
      "type": "function"
    },
    {
      "inputs": [
        {
          "internalType": "address",
          "name": "",
          "type": "address"
        }
      ],
      "name": "agentes",
      "outputs": [
        {
          "internalType": "uint256",
          "name": "potenciaEntregada",
          "type": "uint256"
        },
        {
          "internalType": "address",
          "name": "identification",
          "type": "address"
        }
      ],
      "stateMutability": "view",
      "type": "function"
    },
    {
      "inputs": [],
      "name": "getNumberAgentes",
      "outputs": [
        {
          "internalType": "uint256",
          "name": "",
          "type": "uint256"
        }
      ],
      "stateMutability": "view",
      "type": "function"
    },
    {
      "inputs": [],
      "name": "getPotenciaDemandada",
      "outputs": [
        {
          "internalType": "uint256",
          "name": "",
          "type": "uint256"
        }
      ],
      "stateMutability": "view",
      "type": "function"
    },
    {
      "inputs": [],
      "name": "numberAgentes",
      "outputs": [
        {
          "internalType": "uint256",
          "name": "",
          "type": "uint256"
        }
      ],
      "stateMutability": "view",
      "type": "function"
    },
    {
      "inputs": [],
      "name": "potenciaDemandada",
      "outputs": [
        {
          "internalType": "uint256",
          "name": "",
          "type": "uint256"
        }
      ],
      "stateMutability": "view",
      "type": "function"
    },
    {
      "inputs": [
        {
          "internalType": "address",
          "name": "_sender",
          "type": "address"
        }
      ],
      "name": "register",
      "outputs": [],
      "stateMutability": "nonpayable",
      "type": "function"
    },
    {
      "inputs": [],
      "name": "sumPotencias",
      "outputs": [
        {
          "internalType": "uint256",
          "name": "",
          "type": "uint256"
        }
      ],
      "stateMutability": "view",
      "type": "function"
    }
  ],
  "bytecode": "0x608060405234801561001057600080fd5b50604051610573380380610573833981810160405281019061003291906100bb565b33600360006101000a81548173ffffffffffffffffffffffffffffffffffffffff021916908373ffffffffffffffffffffffffffffffffffffffff16021790555080600181905550506100e8565b600080fd5b6000819050919050565b61009881610085565b81146100a357600080fd5b50565b6000815190506100b58161008f565b92915050565b6000602082840312156100d1576100d0610080565b5b60006100df848285016100a6565b91505092915050565b61047c806100f76000396000f3fe608060405234801561001057600080fd5b50600436106100885760003560e01c806386e13cd21161005b57806386e13cd2146101035780639cd5e455146101345780639ed5d7f514610152578063db509a0c1461017057610088565b806326fa12b01461008d57806335e0a872146100ab5780634420e486146100c957806377d67a3b146100e5575b600080fd5b61009561018e565b6040516100a291906102d1565b60405180910390f35b6100b3610194565b6040516100c091906102d1565b60405180910390f35b6100e360048036038101906100de919061034f565b61019d565b005b6100ed610238565b6040516100fa919061038b565b60405180910390f35b61011d6004803603810190610118919061034f565b61025e565b60405161012b9291906103a6565b60405180910390f35b61013c6102a2565b60405161014991906102d1565b60405180910390f35b61015a6102a8565b60405161016791906102d1565b60405180910390f35b6101786102b2565b60405161018591906102d1565b60405180910390f35b60015481565b60008054905090565b80600460003373ffffffffffffffffffffffffffffffffffffffff1673ffffffffffffffffffffffffffffffffffffffff16815260200190815260200160002060010160006101000a81548173ffffffffffffffffffffffffffffffffffffffff021916908373ffffffffffffffffffffffffffffffffffffffff160217905550600080815480929190610230906103fe565b919050555050565b600360009054906101000a900473ffffffffffffffffffffffffffffffffffffffff1681565b60046020528060005260406000206000915090508060000154908060010160009054906101000a900473ffffffffffffffffffffffffffffffffffffffff16905082565b60005481565b6000600154905090565b60025481565b6000819050919050565b6102cb816102b8565b82525050565b60006020820190506102e660008301846102c2565b92915050565b600080fd5b600073ffffffffffffffffffffffffffffffffffffffff82169050919050565b600061031c826102f1565b9050919050565b61032c81610311565b811461033757600080fd5b50565b60008135905061034981610323565b92915050565b600060208284031215610365576103646102ec565b5b60006103738482850161033a565b91505092915050565b61038581610311565b82525050565b60006020820190506103a0600083018461037c565b92915050565b60006040820190506103bb60008301856102c2565b6103c8602083018461037c565b9392505050565b7f4e487b7100000000000000000000000000000000000000000000000000000000600052601160045260246000fd5b6000610409826102b8565b91507fffffffffffffffffffffffffffffffffffffffffffffffffffffffffffffffff820361043b5761043a6103cf565b5b60018201905091905056fea2646970667358221220264dd528d7a0a12d68117f8ed97c010466595c17026039e2f945a141b87e156364736f6c63430008180033",
  "linkReferences": {},
  "deployedLinkReferences": {}
}